{
  "contractName": "RaoArbitrage",
  "abi": [
    {
      "inputs": [],
      "stateMutability": "nonpayable",
      "type": "constructor"
    },
    {
      "inputs": [],
      "name": "owner",
      "outputs": [
        {
          "internalType": "address",
          "name": "",
          "type": "address"
        }
      ],
      "stateMutability": "view",
      "type": "function",
      "constant": true
    },
    {
      "inputs": [
        {
          "internalType": "contract IERC20",
          "name": "token",
          "type": "address"
        }
      ],
      "name": "withdraw",
      "outputs": [],
      "stateMutability": "nonpayable",
      "type": "function"
    },
    {
      "inputs": [
        {
          "components": [
            {
              "internalType": "uint256",
              "name": "percent",
              "type": "uint256"
            },
            {
              "internalType": "address",
              "name": "pairBorrow",
              "type": "address"
            },
            {
              "internalType": "address",
              "name": "routerSell",
              "type": "address"
            }
          ],
          "internalType": "struct RaoArbitrage.FlashData",
          "name": "params",
          "type": "tuple"
        },
        {
          "internalType": "uint256",
          "name": "deadline",
          "type": "uint256"
        }
      ],
      "name": "flashswap",
      "outputs": [],
      "stateMutability": "nonpayable",
      "type": "function"
    },
    {
      "inputs": [
        {
          "internalType": "address",
          "name": "sender",
          "type": "address"
        },
        {
          "internalType": "uint256",
          "name": "amount0",
          "type": "uint256"
        },
        {
          "internalType": "uint256",
          "name": "amount1",
          "type": "uint256"
        },
        {
          "internalType": "bytes",
          "name": "data",
          "type": "bytes"
        }
      ],
      "name": "uniswapV2Call",
      "outputs": [],
      "stateMutability": "nonpayable",
      "type": "function"
    }
  ],
  "bytecode": "0x60a060405234801561001057600080fd5b503373ffffffffffffffffffffffffffffffffffffffff1660808173ffffffffffffffffffffffffffffffffffffffff1660601b8152505060805160601c611910610074600039600081816107a4015281816108370152610b4701526119106000f3fe608060405234801561001057600080fd5b506004361061004c5760003560e01c806310d1e85c1461005157806351cff8d91461006d578063830dfe4c146100895780638da5cb5b146100a5575b600080fd5b61006b60048036038101906100669190610f59565b6100c3565b005b61008760048036038101906100829190611043565b61078b565b005b6100a3600480360381019061009e919061106c565b610952565b005b6100ad610b45565b6040516100ba919061134b565b60405180910390f35b6000610104576040517f08c379a00000000000000000000000000000000000000000000000000000000081526004016100fb906113f8565b60405180910390fd5b3073ffffffffffffffffffffffffffffffffffffffff168573ffffffffffffffffffffffffffffffffffffffff1614610172576040517f08c379a000000000000000000000000000000000000000000000000000000000815260040161016990611418565b60405180910390fd5b60008083838101906101849190610f1d565b915091506000816101955785610197565b865b905060006101a6828433610b69565b90506000600267ffffffffffffffff8111156101eb577f4e487b7100000000000000000000000000000000000000000000000000000000600052604160045260246000fd5b6040519080825280602002602001820160405280156102195781602001602082028036833780820191505090505b50905060003373ffffffffffffffffffffffffffffffffffffffff16630dfe16816040518163ffffffff1660e01b815260040160206040518083038186803b15801561026457600080fd5b505afa158015610278573d6000803e3d6000fd5b505050506040513d601f19601f8201168201806040525081019061029c9190610ef4565b905060003373ffffffffffffffffffffffffffffffffffffffff1663d21220a76040518163ffffffff1660e01b815260040160206040518083038186803b1580156102e657600080fd5b505afa1580156102fa573d6000803e3d6000fd5b505050506040513d601f19601f8201168201806040525081019061031e9190610ef4565b90508561032b578061032d565b815b83600081518110610367577f4e487b7100000000000000000000000000000000000000000000000000000000600052603260045260246000fd5b602002602001019073ffffffffffffffffffffffffffffffffffffffff16908173ffffffffffffffffffffffffffffffffffffffff1681525050856103ac57816103ae565b805b836001815181106103e8577f4e487b7100000000000000000000000000000000000000000000000000000000600052603260045260246000fd5b602002602001019073ffffffffffffffffffffffffffffffffffffffff16908173ffffffffffffffffffffffffffffffffffffffff168152505060008773ffffffffffffffffffffffffffffffffffffffff1663d06ca61f87866040518363ffffffff1660e01b815260040161045f929190611458565b60006040518083038186803b15801561047757600080fd5b505afa15801561048b573d6000803e3d6000fd5b505050506040513d6000823e3d601f19601f820116820180604052508101906104b49190610fd9565b6001815181106104ed577f4e487b7100000000000000000000000000000000000000000000000000000000600052603260045260246000fd5b60200260200101519050808510610539576040517f08c379a0000000000000000000000000000000000000000000000000000000008152600401610530906113b8565b60405180910390fd5b83600081518110610573577f4e487b7100000000000000000000000000000000000000000000000000000000600052603260045260246000fd5b602002602001015173ffffffffffffffffffffffffffffffffffffffff1663095ea7b389886040518363ffffffff1660e01b81526004016105b592919061138f565b602060405180830381600087803b1580156105cf57600080fd5b505af11580156105e3573d6000803e3d6000fd5b505050506040513d601f19601f82011682018060405250810190610607919061101a565b508773ffffffffffffffffffffffffffffffffffffffff166338ed173987838730600a4261063591906115f1565b6040518663ffffffff1660e01b81526004016106559594939291906114d4565b600060405180830381600087803b15801561066f57600080fd5b505af1158015610683573d6000803e3d6000fd5b505050506040513d6000823e3d601f19601f820116820180604052508101906106ac9190610fd9565b50836001815181106106e7577f4e487b7100000000000000000000000000000000000000000000000000000000600052603260045260246000fd5b602002602001015173ffffffffffffffffffffffffffffffffffffffff1663a9059cbb33876040518363ffffffff1660e01b815260040161072992919061138f565b602060405180830381600087803b15801561074357600080fd5b505af1158015610757573d6000803e3d6000fd5b505050506040513d601f19601f8201168201806040525081019061077b919061101a565b5050505050505050505050505050565b3373ffffffffffffffffffffffffffffffffffffffff167f000000000000000000000000000000000000000000000000000000000000000073ffffffffffffffffffffffffffffffffffffffff1614610819576040517f08c379a0000000000000000000000000000000000000000000000000000000008152600401610810906113d8565b60405180910390fd5b8073ffffffffffffffffffffffffffffffffffffffff1663a9059cbb7f00000000000000000000000000000000000000000000000000000000000000008373ffffffffffffffffffffffffffffffffffffffff166370a08231306040518263ffffffff1660e01b815260040161088f919061134b565b60206040518083038186803b1580156108a757600080fd5b505afa1580156108bb573d6000803e3d6000fd5b505050506040513d601f19601f820116820180604052508101906108df91906110f7565b6040518363ffffffff1660e01b81526004016108fc92919061138f565b602060405180830381600087803b15801561091657600080fd5b505af115801561092a573d6000803e3d6000fd5b505050506040513d601f19601f8201168201806040525081019061094e919061101a565b5050565b8042811015610996576040517f08c379a000000000000000000000000000000000000000000000000000000000815260040161098d90611438565b60405180910390fd5b600080846020015173ffffffffffffffffffffffffffffffffffffffff16630902f1ac6040518163ffffffff1660e01b815260040160606040518083038186803b1580156109e357600080fd5b505afa1580156109f7573d6000803e3d6000fd5b505050506040513d601f19601f82011682018060405250810190610a1b91906110a8565b506dffffffffffffffffffffffffffff1691506dffffffffffffffffffffffffffff16915060008183119050600081610a6357866000015183610a5e9190611647565b610a74565b866000015184610a739190611647565b5b90506000876040015183604051602001610a8f929190611366565b6040516020818303038152906040529050600083610aae576000610ab0565b825b9050600084610abf5783610ac2565b60005b9050896020015173ffffffffffffffffffffffffffffffffffffffff1663022c0d9f838330876040518563ffffffff1660e01b8152600401610b079493929190611488565b600060405180830381600087803b158015610b2157600080fd5b505af1158015610b35573d6000803e3d6000fd5b5050505050505050505050505050565b7f000000000000000000000000000000000000000000000000000000000000000081565b60008060008373ffffffffffffffffffffffffffffffffffffffff16630902f1ac6040518163ffffffff1660e01b815260040160606040518083038186803b158015610bb457600080fd5b505afa158015610bc8573d6000803e3d6000fd5b505050506040513d601f19601f82011682018060405250810190610bec91906110a8565b506dffffffffffffffffffffffffffff1691506dffffffffffffffffffffffffffff169150600085610c1e5781610c20565b825b9050600086610c2f5783610c31565b825b9050610c936001610c85610c506103e586610ca090919063ffffffff16565b610c778c610c696103e888610ca090919063ffffffff16565b610ca090919063ffffffff16565b610cb690919063ffffffff16565b610ccc90919063ffffffff16565b9450505050509392505050565b60008183610cae9190611678565b905092915050565b60008183610cc49190611647565b905092915050565b60008183610cda91906115f1565b905092915050565b6000610cf5610cf08461155f565b61152e565b90508083825260208201905082856020860282011115610d1457600080fd5b60005b85811015610d445781610d2a8882610eca565b845260208401935060208301925050600181019050610d17565b5050509392505050565b600081359050610d5d81611839565b92915050565b600081519050610d7281611839565b92915050565b600081359050610d8781611850565b92915050565b600082601f830112610d9e57600080fd5b8151610dae848260208601610ce2565b91505092915050565b600081359050610dc681611867565b92915050565b600081519050610ddb81611867565b92915050565b60008083601f840112610df357600080fd5b8235905067ffffffffffffffff811115610e0c57600080fd5b602083019150836001820283011115610e2457600080fd5b9250929050565b600081359050610e3a8161187e565b92915050565b600060608284031215610e5257600080fd5b610e5c606061152e565b90506000610e6c84828501610eb5565b6000830152506020610e8084828501610d4e565b6020830152506040610e9484828501610d4e565b60408301525092915050565b600081519050610eaf81611895565b92915050565b600081359050610ec4816118ac565b92915050565b600081519050610ed9816118ac565b92915050565b600081519050610eee816118c3565b92915050565b600060208284031215610f0657600080fd5b6000610f1484828501610d63565b91505092915050565b60008060408385031215610f3057600080fd5b6000610f3e85828601610d78565b9250506020610f4f85828601610db7565b9150509250929050565b600080600080600060808688031215610f7157600080fd5b6000610f7f88828901610d4e565b9550506020610f9088828901610eb5565b9450506040610fa188828901610eb5565b935050606086013567ffffffffffffffff811115610fbe57600080fd5b610fca88828901610de1565b92509250509295509295909350565b600060208284031215610feb57600080fd5b600082015167ffffffffffffffff81111561100557600080fd5b61101184828501610d8d565b91505092915050565b60006020828403121561102c57600080fd5b600061103a84828501610dcc565b91505092915050565b60006020828403121561105557600080fd5b600061106384828501610e2b565b91505092915050565b6000806080838503121561107f57600080fd5b600061108d85828601610e40565b925050606061109e85828601610eb5565b9150509250929050565b6000806000606084860312156110bd57600080fd5b60006110cb86828701610ea0565b93505060206110dc86828701610ea0565b92505060406110ed86828701610edf565b9150509250925092565b60006020828403121561110957600080fd5b600061111784828501610eca565b91505092915050565b600061112c8383611138565b60208301905092915050565b611141816116d2565b82525050565b611150816116d2565b82525050565b60006111618261159b565b61116b81856115be565b93506111768361158b565b8060005b838110156111a757815161118e8882611120565b9750611199836115b1565b92505060018101905061117a565b5085935050505092915050565b6111bd816116f6565b82525050565b60006111ce826115a6565b6111d881856115cf565b93506111e8818560208601611768565b6111f181611828565b840191505092915050565b6000611209600f836115e0565b91507f52616f4172626974726167653a204b00000000000000000000000000000000006000830152602082019050919050565b60006112496018836115e0565b91507f52616f4172626974726167653a206f6e6c79206f776e657200000000000000006000830152602082019050919050565b6000611289600d836115e0565b91507f72657665727420746869732033000000000000000000000000000000000000006000830152602082019050919050565b60006112c96011836115e0565b91507f52616f4172626974726167653a204e414e0000000000000000000000000000006000830152602082019050919050565b6000611309600f836115e0565b91507f52616f4172626974726167653a205400000000000000000000000000000000006000830152602082019050919050565b6113458161174e565b82525050565b60006020820190506113606000830184611147565b92915050565b600060408201905061137b6000830185611147565b61138860208301846111b4565b9392505050565b60006040820190506113a46000830185611147565b6113b1602083018461133c565b9392505050565b600060208201905081810360008301526113d1816111fc565b9050919050565b600060208201905081810360008301526113f18161123c565b9050919050565b600060208201905081810360008301526114118161127c565b9050919050565b60006020820190508181036000830152611431816112bc565b9050919050565b60006020820190508181036000830152611451816112fc565b9050919050565b600060408201905061146d600083018561133c565b818103602083015261147f8184611156565b90509392505050565b600060808201905061149d600083018761133c565b6114aa602083018661133c565b6114b76040830185611147565b81810360608301526114c981846111c3565b905095945050505050565b600060a0820190506114e9600083018861133c565b6114f6602083018761133c565b81810360408301526115088186611156565b90506115176060830185611147565b611524608083018461133c565b9695505050505050565b6000604051905081810181811067ffffffffffffffff82111715611555576115546117f9565b5b8060405250919050565b600067ffffffffffffffff82111561157a576115796117f9565b5b602082029050602081019050919050565b6000819050602082019050919050565b600081519050919050565b600081519050919050565b6000602082019050919050565b600082825260208201905092915050565b600082825260208201905092915050565b600082825260208201905092915050565b60006115fc8261174e565b91506116078361174e565b9250827fffffffffffffffffffffffffffffffffffffffffffffffffffffffffffffffff0382111561163c5761163b61179b565b5b828201905092915050565b60006116528261174e565b915061165d8361174e565b92508261166d5761166c6117ca565b5b828204905092915050565b60006116838261174e565b915061168e8361174e565b9250817fffffffffffffffffffffffffffffffffffffffffffffffffffffffffffffffff04831182151516156116c7576116c661179b565b5b828202905092915050565b60006116dd8261172e565b9050919050565b60006116ef8261172e565b9050919050565b60008115159050919050565b600061170d826116d2565b9050919050565b60006dffffffffffffffffffffffffffff82169050919050565b600073ffffffffffffffffffffffffffffffffffffffff82169050919050565b6000819050919050565b600063ffffffff82169050919050565b60005b8381101561178657808201518184015260208101905061176b565b83811115611795576000848401525b50505050565b7f4e487b7100000000000000000000000000000000000000000000000000000000600052601160045260246000fd5b7f4e487b7100000000000000000000000000000000000000000000000000000000600052601260045260246000fd5b7f4e487b7100000000000000000000000000000000000000000000000000000000600052604160045260246000fd5b6000601f19601f8301169050919050565b611842816116d2565b811461184d57600080fd5b50565b611859816116e4565b811461186457600080fd5b50565b611870816116f6565b811461187b57600080fd5b50565b61188781611702565b811461189257600080fd5b50565b61189e81611714565b81146118a957600080fd5b50565b6118b58161174e565b81146118c057600080fd5b50565b6118cc81611758565b81146118d757600080fd5b5056fea2646970667358221220cd9d9269866d2ca59b30ff751fa53f41d860c3099b3cb7b24a34930d3a637bf564736f6c63430008000033",
  "immutableReferences": {
    "1034": [
      {
        "length": 32,
        "start": 1956
      },
      {
        "length": 32,
        "start": 2103
      },
      {
        "length": 32,
        "start": 2887
      }
    ]
  },
  "source": "// SPDX-License-Identifier: MIT\npragma solidity <0.9.0;\n\nimport \"@uniswap/v2-core/contracts/interfaces/IUniswapV2Callee.sol\";\nimport \"@uniswap/v2-core/contracts/interfaces/IUniswapV2Factory.sol\";\nimport \"@uniswap/v2-core/contracts/interfaces/IUniswapV2Pair.sol\";\nimport \"@uniswap/v2-periphery/contracts/interfaces/IUniswapV2Router01.sol\";\nimport \"@openzeppelin/contracts/interfaces/IERC20.sol\";\nimport \"@openzeppelin/contracts/utils/math/SafeMath.sol\";\n\ncontract RaoArbitrage is IUniswapV2Callee {\n    using SafeMath for uint256;\n\n    address public immutable owner;\n\n    modifier ensure(uint256 time) {\n        require(time >= block.timestamp, \"RaoArbitrage: T\");\n        _;\n    }\n\n    modifier onlyOwner() {\n        require(owner == msg.sender, \"RaoArbitrage: only owner\");\n        _;\n    }\n\n    constructor() {\n        owner = msg.sender;\n    }\n\n    struct FlashData {\n        uint256 percent;\n        address pairBorrow;\n        address routerSell;\n    }\n\n    function withdraw(IERC20 token) external onlyOwner {\n        token.transfer(owner, token.balanceOf(address(this)));\n    }\n\n    function flashswap(FlashData memory params, uint256 deadline)\n        external\n        ensure(deadline)\n    {\n        (uint256 reserve0, uint256 reserve1, ) = IUniswapV2Pair(\n            params.pairBorrow\n        ).getReserves();\n        bool borrow0 = reserve0 > reserve1;\n        uint256 amountBorrow = borrow0\n            ? reserve0 / params.percent\n            : reserve1 / params.percent;\n        {\n            bytes memory data = abi.encode(params.routerSell, borrow0);\n            uint256 amount0 = borrow0 ? amountBorrow : 0;\n            uint256 amount1 = borrow0 ? 0 : amountBorrow;\n            IUniswapV2Pair(params.pairBorrow).swap(\n                amount0,\n                amount1,\n                address(this),\n                data\n            );\n        }\n    }\n\n    function uniswapV2Call(\n        address sender,\n        uint256 amount0,\n        uint256 amount1,\n        bytes calldata data\n    ) external override {\n        require(false, \"revert this 3\");\n        require(sender == address(this), \"RaoArbitrage: NAN\");\n        (address routerSell, bool borrow0) = abi.decode(data, (address, bool));\n        uint256 amount = borrow0 ? amount0 : amount1;\n        uint256 amountToRepay = getAmountOutToPayback(\n            amount,\n            borrow0,\n            msg.sender\n        );\n\n        address[] memory path = new address[](2);\n        address token0 = IUniswapV2Pair(msg.sender).token0();\n        address token1 = IUniswapV2Pair(msg.sender).token1();\n        path[0] = borrow0 ? token0 : token1;\n        path[1] = borrow0 ? token1 : token0;\n        uint256 amountOutMin = IUniswapV2Router01(routerSell).getAmountsOut(\n            amount,\n            path\n        )[1];\n        require(amountToRepay < amountOutMin, \"RaoArbitrage: K\");\n        IERC20(path[0]).approve(routerSell, amount);\n        IUniswapV2Router01(routerSell).swapExactTokensForTokens(\n            amount,\n            amountOutMin,\n            path,\n            address(this),\n            block.timestamp + 10\n        );\n        IERC20(path[1]).transfer(msg.sender, amountToRepay);\n    }\n\n    function getAmountOutToPayback(\n        uint256 amount,\n        bool borrow0,\n        address pair\n    ) internal view returns (uint256 amountToPayback) {\n        (uint256 reserve0, uint256 reserve1, ) = IUniswapV2Pair(pair)\n            .getReserves();\n        uint256 reserveIn = borrow0 ? reserve0 : reserve1;\n        uint256 reserveOut = borrow0 ? reserve1 : reserve0;\n\n        amountToPayback = reserveOut\n            .mul(1000)\n            .mul(amount)\n            .div(reserveIn.mul(997))\n            .add(1);\n    }\n}\n",
  "sourcePath": "/home/lenoir/vscode/cryptoproject/arbitrage/contracts/RaoArbitrage.sol",
  "compiler": {
    "name": "solc",
    "version": "0.8.0+commit.c7dfd78e.Emscripten.clang"
  },
  "schemaVersion": "3.4.4",
  "updatedAt": "2021-12-28T21:34:18.399Z",
  "networkType": "ethereum",
  "devdoc": {
    "kind": "dev",
    "methods": {},
    "version": 1
  },
  "userdoc": {
    "kind": "user",
    "methods": {},
    "version": 1
  }
}