{
  "contractName": "RaoArbitrage",
  "abi": [
    {
      "inputs": [],
      "stateMutability": "nonpayable",
      "type": "constructor"
    },
    {
      "inputs": [],
      "name": "owner",
      "outputs": [
        {
          "internalType": "address",
          "name": "",
          "type": "address"
        }
      ],
      "stateMutability": "view",
      "type": "function"
    },
    {
      "inputs": [
        {
          "internalType": "contract IERC20",
          "name": "token",
          "type": "address"
        }
      ],
      "name": "withdraw",
      "outputs": [],
      "stateMutability": "nonpayable",
      "type": "function"
    },
    {
      "inputs": [
        {
          "components": [
            {
              "internalType": "uint256",
              "name": "percent",
              "type": "uint256"
            },
            {
              "internalType": "address",
              "name": "pairBorrow",
              "type": "address"
            },
            {
              "internalType": "address",
              "name": "routerSell",
              "type": "address"
            }
          ],
          "internalType": "struct RaoArbitrage.FlashData",
          "name": "params",
          "type": "tuple"
        },
        {
          "internalType": "uint256",
          "name": "deadline",
          "type": "uint256"
        }
      ],
      "name": "flashswap",
      "outputs": [],
      "stateMutability": "nonpayable",
      "type": "function"
    },
    {
      "inputs": [
        {
          "internalType": "address",
          "name": "sender",
          "type": "address"
        },
        {
          "internalType": "uint256",
          "name": "amount0",
          "type": "uint256"
        },
        {
          "internalType": "uint256",
          "name": "amount1",
          "type": "uint256"
        },
        {
          "internalType": "bytes",
          "name": "data",
          "type": "bytes"
        }
      ],
      "name": "uniswapV2Call",
      "outputs": [],
      "stateMutability": "nonpayable",
      "type": "function"
    }
  ],
  "bytecode": "0x60a060405234801561001057600080fd5b503373ffffffffffffffffffffffffffffffffffffffff1660808173ffffffffffffffffffffffffffffffffffffffff1660601b8152505060805160601c611904610074600039600081816107a4015281816108370152610b3b01526119046000f3fe608060405234801561001057600080fd5b506004361061004c5760003560e01c806310d1e85c1461005157806351cff8d91461006d578063830dfe4c146100895780638da5cb5b146100a5575b600080fd5b61006b60048036038101906100669190610f4d565b6100c3565b005b61008760048036038101906100829190611037565b61078b565b005b6100a3600480360381019061009e9190611060565b610952565b005b6100ad610b39565b6040516100ba919061133f565b60405180910390f35b6000610104576040517f08c379a00000000000000000000000000000000000000000000000000000000081526004016100fb906113ec565b60405180910390fd5b3073ffffffffffffffffffffffffffffffffffffffff168573ffffffffffffffffffffffffffffffffffffffff1614610172576040517f08c379a00000000000000000000000000000000000000000000000000000000081526004016101699061140c565b60405180910390fd5b60008083838101906101849190610f11565b915091506000816101955785610197565b865b905060006101a6828433610b5d565b90506000600267ffffffffffffffff8111156101eb577f4e487b7100000000000000000000000000000000000000000000000000000000600052604160045260246000fd5b6040519080825280602002602001820160405280156102195781602001602082028036833780820191505090505b50905060003373ffffffffffffffffffffffffffffffffffffffff16630dfe16816040518163ffffffff1660e01b815260040160206040518083038186803b15801561026457600080fd5b505afa158015610278573d6000803e3d6000fd5b505050506040513d601f19601f8201168201806040525081019061029c9190610ee8565b905060003373ffffffffffffffffffffffffffffffffffffffff1663d21220a76040518163ffffffff1660e01b815260040160206040518083038186803b1580156102e657600080fd5b505afa1580156102fa573d6000803e3d6000fd5b505050506040513d601f19601f8201168201806040525081019061031e9190610ee8565b90508561032b578061032d565b815b83600081518110610367577f4e487b7100000000000000000000000000000000000000000000000000000000600052603260045260246000fd5b602002602001019073ffffffffffffffffffffffffffffffffffffffff16908173ffffffffffffffffffffffffffffffffffffffff1681525050856103ac57816103ae565b805b836001815181106103e8577f4e487b7100000000000000000000000000000000000000000000000000000000600052603260045260246000fd5b602002602001019073ffffffffffffffffffffffffffffffffffffffff16908173ffffffffffffffffffffffffffffffffffffffff168152505060008773ffffffffffffffffffffffffffffffffffffffff1663d06ca61f87866040518363ffffffff1660e01b815260040161045f92919061144c565b60006040518083038186803b15801561047757600080fd5b505afa15801561048b573d6000803e3d6000fd5b505050506040513d6000823e3d601f19601f820116820180604052508101906104b49190610fcd565b6001815181106104ed577f4e487b7100000000000000000000000000000000000000000000000000000000600052603260045260246000fd5b60200260200101519050808510610539576040517f08c379a0000000000000000000000000000000000000000000000000000000008152600401610530906113ac565b60405180910390fd5b83600081518110610573577f4e487b7100000000000000000000000000000000000000000000000000000000600052603260045260246000fd5b602002602001015173ffffffffffffffffffffffffffffffffffffffff1663095ea7b389886040518363ffffffff1660e01b81526004016105b5929190611383565b602060405180830381600087803b1580156105cf57600080fd5b505af11580156105e3573d6000803e3d6000fd5b505050506040513d601f19601f82011682018060405250810190610607919061100e565b508773ffffffffffffffffffffffffffffffffffffffff166338ed173987838730600a4261063591906115e5565b6040518663ffffffff1660e01b81526004016106559594939291906114c8565b600060405180830381600087803b15801561066f57600080fd5b505af1158015610683573d6000803e3d6000fd5b505050506040513d6000823e3d601f19601f820116820180604052508101906106ac9190610fcd565b50836001815181106106e7577f4e487b7100000000000000000000000000000000000000000000000000000000600052603260045260246000fd5b602002602001015173ffffffffffffffffffffffffffffffffffffffff1663a9059cbb33876040518363ffffffff1660e01b8152600401610729929190611383565b602060405180830381600087803b15801561074357600080fd5b505af1158015610757573d6000803e3d6000fd5b505050506040513d601f19601f8201168201806040525081019061077b919061100e565b5050505050505050505050505050565b3373ffffffffffffffffffffffffffffffffffffffff167f000000000000000000000000000000000000000000000000000000000000000073ffffffffffffffffffffffffffffffffffffffff1614610819576040517f08c379a0000000000000000000000000000000000000000000000000000000008152600401610810906113cc565b60405180910390fd5b8073ffffffffffffffffffffffffffffffffffffffff1663a9059cbb7f00000000000000000000000000000000000000000000000000000000000000008373ffffffffffffffffffffffffffffffffffffffff166370a08231306040518263ffffffff1660e01b815260040161088f919061133f565b60206040518083038186803b1580156108a757600080fd5b505afa1580156108bb573d6000803e3d6000fd5b505050506040513d601f19601f820116820180604052508101906108df91906110eb565b6040518363ffffffff1660e01b81526004016108fc929190611383565b602060405180830381600087803b15801561091657600080fd5b505af115801561092a573d6000803e3d6000fd5b505050506040513d601f19601f8201168201806040525081019061094e919061100e565b5050565b8042811015610996576040517f08c379a000000000000000000000000000000000000000000000000000000000815260040161098d9061142c565b60405180910390fd5b600080846020015173ffffffffffffffffffffffffffffffffffffffff16630902f1ac6040518163ffffffff1660e01b815260040160606040518083038186803b1580156109e357600080fd5b505afa1580156109f7573d6000803e3d6000fd5b505050506040513d601f19601f82011682018060405250810190610a1b919061109c565b506dffffffffffffffffffffffffffff1691506dffffffffffffffffffffffffffff16915060008183119050600081610a6357866000015183610a5e919061163b565b610a74565b866000015184610a73919061163b565b5b90506000876040015183604051602001610a8f92919061135a565b6040516020818303038152906040529050876020015173ffffffffffffffffffffffffffffffffffffffff1663022c0d9f84610acc576000610ace565b835b85610ad95784610adc565b60005b30856040518563ffffffff1660e01b8152600401610afd949392919061147c565b600060405180830381600087803b158015610b1757600080fd5b505af1158015610b2b573d6000803e3d6000fd5b505050505050505050505050565b7f000000000000000000000000000000000000000000000000000000000000000081565b60008060008373ffffffffffffffffffffffffffffffffffffffff16630902f1ac6040518163ffffffff1660e01b815260040160606040518083038186803b158015610ba857600080fd5b505afa158015610bbc573d6000803e3d6000fd5b505050506040513d601f19601f82011682018060405250810190610be0919061109c565b506dffffffffffffffffffffffffffff1691506dffffffffffffffffffffffffffff169150600085610c125781610c14565b825b9050600086610c235783610c25565b825b9050610c876001610c79610c446103e586610c9490919063ffffffff16565b610c6b8c610c5d6103e888610c9490919063ffffffff16565b610c9490919063ffffffff16565b610caa90919063ffffffff16565b610cc090919063ffffffff16565b9450505050509392505050565b60008183610ca2919061166c565b905092915050565b60008183610cb8919061163b565b905092915050565b60008183610cce91906115e5565b905092915050565b6000610ce9610ce484611553565b611522565b90508083825260208201905082856020860282011115610d0857600080fd5b60005b85811015610d385781610d1e8882610ebe565b845260208401935060208301925050600181019050610d0b565b5050509392505050565b600081359050610d518161182d565b92915050565b600081519050610d668161182d565b92915050565b600081359050610d7b81611844565b92915050565b600082601f830112610d9257600080fd5b8151610da2848260208601610cd6565b91505092915050565b600081359050610dba8161185b565b92915050565b600081519050610dcf8161185b565b92915050565b60008083601f840112610de757600080fd5b8235905067ffffffffffffffff811115610e0057600080fd5b602083019150836001820283011115610e1857600080fd5b9250929050565b600081359050610e2e81611872565b92915050565b600060608284031215610e4657600080fd5b610e506060611522565b90506000610e6084828501610ea9565b6000830152506020610e7484828501610d42565b6020830152506040610e8884828501610d42565b60408301525092915050565b600081519050610ea381611889565b92915050565b600081359050610eb8816118a0565b92915050565b600081519050610ecd816118a0565b92915050565b600081519050610ee2816118b7565b92915050565b600060208284031215610efa57600080fd5b6000610f0884828501610d57565b91505092915050565b60008060408385031215610f2457600080fd5b6000610f3285828601610d6c565b9250506020610f4385828601610dab565b9150509250929050565b600080600080600060808688031215610f6557600080fd5b6000610f7388828901610d42565b9550506020610f8488828901610ea9565b9450506040610f9588828901610ea9565b935050606086013567ffffffffffffffff811115610fb257600080fd5b610fbe88828901610dd5565b92509250509295509295909350565b600060208284031215610fdf57600080fd5b600082015167ffffffffffffffff811115610ff957600080fd5b61100584828501610d81565b91505092915050565b60006020828403121561102057600080fd5b600061102e84828501610dc0565b91505092915050565b60006020828403121561104957600080fd5b600061105784828501610e1f565b91505092915050565b6000806080838503121561107357600080fd5b600061108185828601610e34565b925050606061109285828601610ea9565b9150509250929050565b6000806000606084860312156110b157600080fd5b60006110bf86828701610e94565b93505060206110d086828701610e94565b92505060406110e186828701610ed3565b9150509250925092565b6000602082840312156110fd57600080fd5b600061110b84828501610ebe565b91505092915050565b6000611120838361112c565b60208301905092915050565b611135816116c6565b82525050565b611144816116c6565b82525050565b60006111558261158f565b61115f81856115b2565b935061116a8361157f565b8060005b8381101561119b5781516111828882611114565b975061118d836115a5565b92505060018101905061116e565b5085935050505092915050565b6111b1816116ea565b82525050565b60006111c28261159a565b6111cc81856115c3565b93506111dc81856020860161175c565b6111e58161181c565b840191505092915050565b60006111fd600f836115d4565b91507f52616f4172626974726167653a204b00000000000000000000000000000000006000830152602082019050919050565b600061123d6018836115d4565b91507f52616f4172626974726167653a206f6e6c79206f776e657200000000000000006000830152602082019050919050565b600061127d600d836115d4565b91507f72657665727420746869732033000000000000000000000000000000000000006000830152602082019050919050565b60006112bd6011836115d4565b91507f52616f4172626974726167653a204e414e0000000000000000000000000000006000830152602082019050919050565b60006112fd600f836115d4565b91507f52616f4172626974726167653a205400000000000000000000000000000000006000830152602082019050919050565b61133981611742565b82525050565b6000602082019050611354600083018461113b565b92915050565b600060408201905061136f600083018561113b565b61137c60208301846111a8565b9392505050565b6000604082019050611398600083018561113b565b6113a56020830184611330565b9392505050565b600060208201905081810360008301526113c5816111f0565b9050919050565b600060208201905081810360008301526113e581611230565b9050919050565b6000602082019050818103600083015261140581611270565b9050919050565b60006020820190508181036000830152611425816112b0565b9050919050565b60006020820190508181036000830152611445816112f0565b9050919050565b60006040820190506114616000830185611330565b8181036020830152611473818461114a565b90509392505050565b60006080820190506114916000830187611330565b61149e6020830186611330565b6114ab604083018561113b565b81810360608301526114bd81846111b7565b905095945050505050565b600060a0820190506114dd6000830188611330565b6114ea6020830187611330565b81810360408301526114fc818661114a565b905061150b606083018561113b565b6115186080830184611330565b9695505050505050565b6000604051905081810181811067ffffffffffffffff82111715611549576115486117ed565b5b8060405250919050565b600067ffffffffffffffff82111561156e5761156d6117ed565b5b602082029050602081019050919050565b6000819050602082019050919050565b600081519050919050565b600081519050919050565b6000602082019050919050565b600082825260208201905092915050565b600082825260208201905092915050565b600082825260208201905092915050565b60006115f082611742565b91506115fb83611742565b9250827fffffffffffffffffffffffffffffffffffffffffffffffffffffffffffffffff038211156116305761162f61178f565b5b828201905092915050565b600061164682611742565b915061165183611742565b925082611661576116606117be565b5b828204905092915050565b600061167782611742565b915061168283611742565b9250817fffffffffffffffffffffffffffffffffffffffffffffffffffffffffffffffff04831182151516156116bb576116ba61178f565b5b828202905092915050565b60006116d182611722565b9050919050565b60006116e382611722565b9050919050565b60008115159050919050565b6000611701826116c6565b9050919050565b60006dffffffffffffffffffffffffffff82169050919050565b600073ffffffffffffffffffffffffffffffffffffffff82169050919050565b6000819050919050565b600063ffffffff82169050919050565b60005b8381101561177a57808201518184015260208101905061175f565b83811115611789576000848401525b50505050565b7f4e487b7100000000000000000000000000000000000000000000000000000000600052601160045260246000fd5b7f4e487b7100000000000000000000000000000000000000000000000000000000600052601260045260246000fd5b7f4e487b7100000000000000000000000000000000000000000000000000000000600052604160045260246000fd5b6000601f19601f8301169050919050565b611836816116c6565b811461184157600080fd5b50565b61184d816116d8565b811461185857600080fd5b50565b611864816116ea565b811461186f57600080fd5b50565b61187b816116f6565b811461188657600080fd5b50565b61189281611708565b811461189d57600080fd5b50565b6118a981611742565b81146118b457600080fd5b50565b6118c08161174c565b81146118cb57600080fd5b5056fea2646970667358221220e0360f87903ba02185d32441b75559225e66630fd8be60af889e2756f92d4ac264736f6c63430008000033",
  "immutableReferences": {
    "1624": [
      {
        "length": 32,
        "start": 1956
      },
      {
        "length": 32,
        "start": 2103
      },
      {
        "length": 32,
        "start": 2875
      }
    ]
  },
  "source": "// SPDX-License-Identifier: MIT\npragma solidity <0.9.0;\n\nimport \"@uniswap/v2-core/contracts/interfaces/IUniswapV2Callee.sol\";\nimport \"@uniswap/v2-core/contracts/interfaces/IUniswapV2Factory.sol\";\nimport \"@uniswap/v2-core/contracts/interfaces/IUniswapV2Pair.sol\";\nimport \"@uniswap/v2-periphery/contracts/interfaces/IUniswapV2Router01.sol\";\nimport \"@openzeppelin/contracts/token/ERC20/ERC20.sol\";\nimport \"@openzeppelin/contracts/utils/math/SafeMath.sol\";\n\ncontract RaoArbitrage is IUniswapV2Callee {\n    using SafeMath for uint256;\n\n    address public immutable owner;\n\n    modifier ensure(uint256 time) {\n        require(time >= block.timestamp, \"RaoArbitrage: T\");\n        _;\n    }\n\n    modifier onlyOwner() {\n        require(owner == msg.sender, \"RaoArbitrage: only owner\");\n        _;\n    }\n\n    constructor() {\n        owner = msg.sender;\n    }\n\n    struct FlashData {\n        uint256 percent;\n        address pairBorrow;\n        address routerSell;\n    }\n\n    function withdraw(IERC20 token) external onlyOwner {\n        token.transfer(owner, token.balanceOf(address(this)));\n    }\n\n    function flashswap(FlashData memory params, uint256 deadline)\n        external\n        ensure(deadline)\n    {\n        (uint256 reserve0, uint256 reserve1, ) = IUniswapV2Pair(\n            params.pairBorrow\n        ).getReserves();\n        bool borrow0 = reserve0 > reserve1;\n        uint256 amountBorrow = borrow0\n            ? reserve0 / params.percent\n            : reserve1 / params.percent;\n        bytes memory data = abi.encode(params.routerSell, borrow0);\n        IUniswapV2Pair(params.pairBorrow).swap(\n            borrow0 ? amountBorrow : 0,\n            borrow0 ? 0 : amountBorrow,\n            address(this),\n            data\n        );\n    }\n\n    function uniswapV2Call(\n        address sender,\n        uint256 amount0,\n        uint256 amount1,\n        bytes calldata data\n    ) external override {\n        require(false, \"revert this 3\");\n        require(sender == address(this), \"RaoArbitrage: NAN\");\n        (address routerSell, bool borrow0) = abi.decode(data, (address, bool));\n        uint256 amount = borrow0 ? amount0 : amount1;\n        uint256 amountToRepay = getAmountOutToPayback(\n            amount,\n            borrow0,\n            msg.sender\n        );\n\n        address[] memory path = new address[](2);\n        address token0 = IUniswapV2Pair(msg.sender).token0();\n        address token1 = IUniswapV2Pair(msg.sender).token1();\n        path[0] = borrow0 ? token0 : token1;\n        path[1] = borrow0 ? token1 : token0;\n        uint256 amountOutMin = IUniswapV2Router01(routerSell).getAmountsOut(\n            amount,\n            path\n        )[1];\n        require(amountToRepay < amountOutMin, \"RaoArbitrage: K\");\n        IERC20(path[0]).approve(routerSell, amount);\n        IUniswapV2Router01(routerSell).swapExactTokensForTokens(\n            amount,\n            amountOutMin,\n            path,\n            address(this),\n            block.timestamp + 10\n        );\n        IERC20(path[1]).transfer(msg.sender, amountToRepay);\n    }\n\n    function getAmountOutToPayback(\n        uint256 amount,\n        bool borrow0,\n        address pair\n    ) internal view returns (uint256 amountToPayback) {\n        (uint256 reserve0, uint256 reserve1, ) = IUniswapV2Pair(pair)\n            .getReserves();\n        uint256 reserveIn = borrow0 ? reserve0 : reserve1;\n        uint256 reserveOut = borrow0 ? reserve1 : reserve0;\n\n        amountToPayback = reserveOut\n            .mul(1000)\n            .mul(amount)\n            .div(reserveIn.mul(997))\n            .add(1);\n    }\n}\n",
  "sourcePath": "/home/lenoir/vscode/cryptoproject/arbitrage/contracts/RaoArbitrage.sol",
  "compiler": {
    "name": "solc",
    "version": "0.8.0+commit.c7dfd78e.Emscripten.clang"
  },
  "schemaVersion": "3.4.4",
  "updatedAt": "2021-12-29T01:00:37.039Z",
  "devdoc": {
    "kind": "dev",
    "methods": {},
    "version": 1
  },
  "userdoc": {
    "kind": "user",
    "methods": {},
    "version": 1
  }
}