{
  "contractName": "RaoUniswapQuery",
  "abi": [
    {
      "inputs": [
        {
          "internalType": "contract IUniswapV2Pair[]",
          "name": "_pairs",
          "type": "address[]"
        }
      ],
      "name": "getReservesByPairs",
      "outputs": [
        {
          "internalType": "uint256[3][]",
          "name": "",
          "type": "uint256[3][]"
        }
      ],
      "stateMutability": "view",
      "type": "function"
    },
    {
      "inputs": [
        {
          "internalType": "contract IUniswapV2Factory[]",
          "name": "_uniswapFactories",
          "type": "address[]"
        },
        {
          "internalType": "address[2][]",
          "name": "tokens",
          "type": "address[2][]"
        },
        {
          "internalType": "uint256",
          "name": "len",
          "type": "uint256"
        }
      ],
      "name": "getPairsByFactory",
      "outputs": [
        {
          "internalType": "address[]",
          "name": "",
          "type": "address[]"
        }
      ],
      "stateMutability": "view",
      "type": "function"
    }
  ],
  "bytecode": "0x608060405234801561001057600080fd5b50610eac806100206000396000f3fe608060405234801561001057600080fd5b50600436106100365760003560e01c80634dbf0f391461003b5780635cee1cd81461006b575b600080fd5b61005560048036038101906100509190610970565b61009b565b6040516100629190610c29565b60405180910390f35b610085600480360381019061008091906108e7565b6103cd565b6040516100929190610c07565b60405180910390f35b606060008383905067ffffffffffffffff8111156100e2577f4e487b7100000000000000000000000000000000000000000000000000000000600052604160045260246000fd5b60405190808252806020026020018201604052801561011b57816020015b610108610702565b8152602001906001900390816101005790505b50905060005b848490508110156103c257848482818110610165577f4e487b7100000000000000000000000000000000000000000000000000000000600052603260045260246000fd5b905060200201602081019061017a91906109de565b73ffffffffffffffffffffffffffffffffffffffff16630902f1ac6040518163ffffffff1660e01b815260040160606040518083038186803b1580156101bf57600080fd5b505afa1580156101d3573d6000803e3d6000fd5b505050506040513d601f19601f820116820180604052508101906101f79190610a07565b826dffffffffffffffffffffffffffff169250816dffffffffffffffffffffffffffff1691508063ffffffff16905084848151811061025f577f4e487b7100000000000000000000000000000000000000000000000000000000600052603260045260246000fd5b60200260200101516000600381106102a0577f4e487b7100000000000000000000000000000000000000000000000000000000600052603260045260246000fd5b602002018585815181106102dd577f4e487b7100000000000000000000000000000000000000000000000000000000600052603260045260246000fd5b602002602001015160016003811061031e577f4e487b7100000000000000000000000000000000000000000000000000000000600052603260045260246000fd5b6020020186868151811061035b577f4e487b7100000000000000000000000000000000000000000000000000000000600052603260045260246000fd5b602002602001015160026003811061039c577f4e487b7100000000000000000000000000000000000000000000000000000000600052603260045260246000fd5b6020020183815250838152508381525050505080806103ba90610d74565b915050610121565b508091505092915050565b606060008267ffffffffffffffff811115610411577f4e487b7100000000000000000000000000000000000000000000000000000000600052604160045260246000fd5b60405190808252806020026020018201604052801561043f5781602001602082028036833780820191505090505b5090506000805b888890508110156106f35760005b878790508110156106df57898983818110610498577f4e487b7100000000000000000000000000000000000000000000000000000000600052603260045260246000fd5b90506020020160208101906104ad91906109b5565b73ffffffffffffffffffffffffffffffffffffffff1663e6a43905898984818110610501577f4e487b7100000000000000000000000000000000000000000000000000000000600052603260045260246000fd5b905060400201600060028110610540577f4e487b7100000000000000000000000000000000000000000000000000000000600052603260045260246000fd5b6020020160208101906105539190610895565b8a8a8581811061058c577f4e487b7100000000000000000000000000000000000000000000000000000000600052603260045260246000fd5b9050604002016001600281106105cb577f4e487b7100000000000000000000000000000000000000000000000000000000600052603260045260246000fd5b6020020160208101906105de9190610895565b6040518363ffffffff1660e01b81526004016105fb929190610bde565b60206040518083038186803b15801561061357600080fd5b505afa158015610627573d6000803e3d6000fd5b505050506040513d601f19601f8201168201806040525081019061064b91906108be565b848481518110610684577f4e487b7100000000000000000000000000000000000000000000000000000000600052603260045260246000fd5b602002602001019073ffffffffffffffffffffffffffffffffffffffff16908173ffffffffffffffffffffffffffffffffffffffff168152505082806106c990610d74565b93505080806106d790610d74565b915050610454565b5080806106eb90610d74565b915050610446565b50819250505095945050505050565b6040518060600160405280600390602082028036833780820191505090505090565b60008135905061073381610dec565b92915050565b60008151905061074881610dec565b92915050565b60008083601f84011261076057600080fd5b8235905067ffffffffffffffff81111561077957600080fd5b60208301915083604082028301111561079157600080fd5b9250929050565b60008083601f8401126107aa57600080fd5b8235905067ffffffffffffffff8111156107c357600080fd5b6020830191508360208202830111156107db57600080fd5b9250929050565b60008083601f8401126107f457600080fd5b8235905067ffffffffffffffff81111561080d57600080fd5b60208301915083602082028301111561082557600080fd5b9250929050565b60008135905061083b81610e03565b92915050565b60008135905061085081610e1a565b92915050565b60008151905061086581610e31565b92915050565b60008135905061087a81610e48565b92915050565b60008151905061088f81610e5f565b92915050565b6000602082840312156108a757600080fd5b60006108b584828501610724565b91505092915050565b6000602082840312156108d057600080fd5b60006108de84828501610739565b91505092915050565b6000806000806000606086880312156108ff57600080fd5b600086013567ffffffffffffffff81111561091957600080fd5b61092588828901610798565b9550955050602086013567ffffffffffffffff81111561094457600080fd5b6109508882890161074e565b935093505060406109638882890161086b565b9150509295509295909350565b6000806020838503121561098357600080fd5b600083013567ffffffffffffffff81111561099d57600080fd5b6109a9858286016107e2565b92509250509250929050565b6000602082840312156109c757600080fd5b60006109d58482850161082c565b91505092915050565b6000602082840312156109f057600080fd5b60006109fe84828501610841565b91505092915050565b600080600060608486031215610a1c57600080fd5b6000610a2a86828701610856565b9350506020610a3b86828701610856565b9250506040610a4c86828701610880565b9150509250925092565b6000610a628383610a9e565b60208301905092915050565b6000610a7a8383610b78565b60608301905092915050565b6000610a928383610bcf565b60208301905092915050565b610aa781610cea565b82525050565b610ab681610cea565b82525050565b6000610ac782610c75565b610ad18185610cbd565b9350610adc83610c4b565b8060005b83811015610b0d578151610af48882610a56565b9750610aff83610c96565b925050600181019050610ae0565b5085935050505092915050565b6000610b2582610c80565b610b2f8185610cce565b9350610b3a83610c5b565b8060005b83811015610b6b578151610b528882610a6e565b9750610b5d83610ca3565b925050600181019050610b3e565b5085935050505092915050565b610b8181610c8b565b610b8b8184610cdf565b9250610b9682610c6b565b8060005b83811015610bc7578151610bae8782610a86565b9650610bb983610cb0565b925050600181019050610b9a565b505050505050565b610bd881610d5a565b82525050565b6000604082019050610bf36000830185610aad565b610c006020830184610aad565b9392505050565b60006020820190508181036000830152610c218184610abc565b905092915050565b60006020820190508181036000830152610c438184610b1a565b905092915050565b6000819050602082019050919050565b6000819050602082019050919050565b6000819050919050565b600081519050919050565b600081519050919050565b600060039050919050565b6000602082019050919050565b6000602082019050919050565b6000602082019050919050565b600082825260208201905092915050565b600082825260208201905092915050565b600081905092915050565b6000610cf582610d3a565b9050919050565b6000610d0782610cea565b9050919050565b6000610d1982610cea565b9050919050565b60006dffffffffffffffffffffffffffff82169050919050565b600073ffffffffffffffffffffffffffffffffffffffff82169050919050565b6000819050919050565b600063ffffffff82169050919050565b6000610d7f82610d5a565b91507fffffffffffffffffffffffffffffffffffffffffffffffffffffffffffffffff821415610db257610db1610dbd565b5b600182019050919050565b7f4e487b7100000000000000000000000000000000000000000000000000000000600052601160045260246000fd5b610df581610cea565b8114610e0057600080fd5b50565b610e0c81610cfc565b8114610e1757600080fd5b50565b610e2381610d0e565b8114610e2e57600080fd5b50565b610e3a81610d20565b8114610e4557600080fd5b50565b610e5181610d5a565b8114610e5c57600080fd5b50565b610e6881610d64565b8114610e7357600080fd5b5056fea26469706673582212201d35ac7c350df365846646bbffc8f40377a90f3c5be493a0202f46daea0456ad64736f6c63430008000033",
  "immutableReferences": {},
  "source": "// SPDX-License-Identifier: UNLICENSED\npragma solidity <0.9.0;\npragma experimental ABIEncoderV2;\n\nimport \"@uniswap/v2-core/contracts/interfaces/IUniswapV2Factory.sol\";\nimport \"@uniswap/v2-core/contracts/interfaces/IUniswapV2Pair.sol\";\n\ncontract RaoUniswapQuery {\n    function getReservesByPairs(IUniswapV2Pair[] calldata _pairs)\n        external\n        view\n        returns (uint256[3][] memory)\n    {\n        uint256[3][] memory result = new uint256[3][](_pairs.length);\n        for (uint256 i = 0; i < _pairs.length; i++) {\n            (result[i][0], result[i][1], result[i][2]) = _pairs[i]\n                .getReserves();\n        }\n        return result;\n    }\n\n    function getPairsByFactory(\n        IUniswapV2Factory[] calldata _uniswapFactories,\n        address[2][] calldata tokens,\n        uint256 len\n    ) external view returns (address[] memory) {\n        address[] memory pairs = new address[](len);\n        uint256 c = 0;\n        for (uint256 a = 0; a < _uniswapFactories.length; a++) {\n            for (uint256 b = 0; b < tokens.length; b++) {\n                pairs[c] = _uniswapFactories[a].getPair(\n                    tokens[b][0],\n                    tokens[b][1]\n                );\n                c++;\n            }\n        }\n        return pairs;\n    }\n}\n",
  "sourcePath": "/home/lenoir/vscode/cryptoproject/arbitrage/contracts/Utility.sol",
  "compiler": {
    "name": "solc",
    "version": "0.8.0+commit.c7dfd78e.Emscripten.clang"
  },
  "schemaVersion": "3.4.4",
  "updatedAt": "2021-12-29T01:00:37.104Z",
  "devdoc": {
    "kind": "dev",
    "methods": {},
    "version": 1
  },
  "userdoc": {
    "kind": "user",
    "methods": {},
    "version": 1
  }
}