{
    "contractName": "RaoArbitrage",
    "abi": [
        {
            "inputs": [],
            "stateMutability": "nonpayable",
            "type": "constructor"
        },
        {
            "inputs": [],
            "name": "owner",
            "outputs": [
                {
                    "internalType": "address",
                    "name": "",
                    "type": "address"
                }
            ],
            "stateMutability": "view",
            "type": "function"
        },
        {
            "inputs": [
                {
                    "internalType": "contract IERC20",
                    "name": "token0",
                    "type": "address"
                },
                {
                    "internalType": "contract IERC20",
                    "name": "token1",
                    "type": "address"
                },
                {
                    "internalType": "address",
                    "name": "pairA",
                    "type": "address"
                },
                {
                    "internalType": "address",
                    "name": "pairB",
                    "type": "address"
                },
                {
                    "internalType": "uint256",
                    "name": "amount0In",
                    "type": "uint256"
                },
                {
                    "internalType": "uint256",
                    "name": "deadline",
                    "type": "uint256"
                }
            ],
            "name": "swap",
            "outputs": [
                {
                    "internalType": "uint256",
                    "name": "amountToRepayA",
                    "type": "uint256"
                },
                {
                    "internalType": "uint256",
                    "name": "amountToRepayB",
                    "type": "uint256"
                }
            ],
            "stateMutability": "view",
            "type": "function"
        }
    ],
    "bytecode": "0x60a060405234801561001057600080fd5b503373ffffffffffffffffffffffffffffffffffffffff1660808173ffffffffffffffffffffffffffffffffffffffff1660601b8152505060805160601c6107926100656000396000608c01526107926000f3fe608060405234801561001057600080fd5b50600436106100365760003560e01c80638da5cb5b1461003b578063a64e3dd714610059575b600080fd5b61004361008a565b6040516100509190610515565b60405180910390f35b610073600480360381019061006e9190610405565b6100ae565b604051610081929190610550565b60405180910390f35b7f000000000000000000000000000000000000000000000000000000000000000081565b60008082428110156100f5576040517f08c379a00000000000000000000000000000000000000000000000000000000081526004016100ec90610530565b60405180910390fd5b60008973ffffffffffffffffffffffffffffffffffffffff166370a08231896040518263ffffffff1660e01b81526004016101309190610515565b60206040518083038186803b15801561014857600080fd5b505afa15801561015c573d6000803e3d6000fd5b505050506040513d601f19601f82011682018060405250810190610180919061048e565b905060008973ffffffffffffffffffffffffffffffffffffffff166370a082318a6040518263ffffffff1660e01b81526004016101bd9190610515565b60206040518083038186803b1580156101d557600080fd5b505afa1580156101e9573d6000803e3d6000fd5b505050506040513d601f19601f8201168201806040525081019061020d919061048e565b90506001826103e561021f9190610611565b88836103e861022e9190610611565b6102389190610611565b61024291906105e0565b61024c919061058a565b94508a73ffffffffffffffffffffffffffffffffffffffff166370a08231896040518263ffffffff1660e01b81526004016102879190610515565b60206040518083038186803b15801561029f57600080fd5b505afa1580156102b3573d6000803e3d6000fd5b505050506040513d601f19601f820116820180604052508101906102d7919061048e565b91508973ffffffffffffffffffffffffffffffffffffffff166370a08231896040518263ffffffff1660e01b81526004016103129190610515565b60206040518083038186803b15801561032a57600080fd5b505afa15801561033e573d6000803e3d6000fd5b505050506040513d601f19601f82011682018060405250810190610362919061048e565b90506001826103e56103749190610611565b88836103e86103839190610611565b61038d9190610611565b61039791906105e0565b6103a1919061058a565b9350505050965096945050505050565b6000813590506103c081610717565b92915050565b6000813590506103d58161072e565b92915050565b6000813590506103ea81610745565b92915050565b6000815190506103ff81610745565b92915050565b60008060008060008060c0878903121561041e57600080fd5b600061042c89828a016103c6565b965050602061043d89828a016103c6565b955050604061044e89828a016103b1565b945050606061045f89828a016103b1565b935050608061047089828a016103db565b92505060a061048189828a016103db565b9150509295509295509295565b6000602082840312156104a057600080fd5b60006104ae848285016103f0565b91505092915050565b6104c08161066b565b82525050565b60006104d3600f83610579565b91507f52616f4172626974726167653a205400000000000000000000000000000000006000830152602082019050919050565b61050f816106af565b82525050565b600060208201905061052a60008301846104b7565b92915050565b60006020820190508181036000830152610549816104c6565b9050919050565b60006040820190506105656000830185610506565b6105726020830184610506565b9392505050565b600082825260208201905092915050565b6000610595826106af565b91506105a0836106af565b9250827fffffffffffffffffffffffffffffffffffffffffffffffffffffffffffffffff038211156105d5576105d46106b9565b5b828201905092915050565b60006105eb826106af565b91506105f6836106af565b925082610606576106056106e8565b5b828204905092915050565b600061061c826106af565b9150610627836106af565b9250817fffffffffffffffffffffffffffffffffffffffffffffffffffffffffffffffff04831182151516156106605761065f6106b9565b5b828202905092915050565b60006106768261068f565b9050919050565b60006106888261066b565b9050919050565b600073ffffffffffffffffffffffffffffffffffffffff82169050919050565b6000819050919050565b7f4e487b7100000000000000000000000000000000000000000000000000000000600052601160045260246000fd5b7f4e487b7100000000000000000000000000000000000000000000000000000000600052601260045260246000fd5b6107208161066b565b811461072b57600080fd5b50565b6107378161067d565b811461074257600080fd5b50565b61074e816106af565b811461075957600080fd5b5056fea2646970667358221220b2398624dcd05daed29287ce7d71a6448e99481bb7c5479ded2a0e15d296860764736f6c63430008000033",
    "immutableReferences": {
        "7": [
            {
                "length": 32,
                "start": 140
            }
        ]
    },
    "source": "// SPDX-License-Identifier: MIT\npragma solidity <0.9.0;\n\nimport \"@uniswap/v2-core/contracts/interfaces/IUniswapV2Factory.sol\";\nimport \"@uniswap/v2-core/contracts/interfaces/IUniswapV2Pair.sol\";\nimport \"@uniswap/v2-periphery/contracts/interfaces/IUniswapV2Router01.sol\";\nimport \"openzeppelin-solidity/contracts/token/ERC20/IERC20.sol\";\n\ncontract RaoArbitrage {\n    address public immutable owner;\n\n    modifier ensure(uint256 time) {\n        require(time >= block.timestamp, \"RaoArbitrage: T\");\n        _;\n    }\n\n    constructor() {\n        owner = msg.sender;\n    }\n\n    function swap(\n        IERC20 token0,\n        IERC20 token1,\n        address pairA,\n        address pairB,\n        uint256 amount0In,\n        uint256 deadline\n    )\n        external\n        view\n        ensure(deadline)\n        returns (uint256 amountToRepayA, uint256 amountToRepayB)\n    {\n        uint256 pairBalanceX = token0.balanceOf(pairA);\n        uint256 pairBalanceY = token1.balanceOf(pairA);\n        amountToRepayA =\n            ((1000 * pairBalanceY * amount0In) / (997 * pairBalanceX)) +\n            1;\n        pairBalanceX = token0.balanceOf(pairB);\n        pairBalanceY = token1.balanceOf(pairB);\n        amountToRepayB =\n            ((1000 * pairBalanceY * amount0In) / (997 * pairBalanceX)) +\n            1;\n    }\n}\n",
    "sourcePath": "/home/lenoir/vscode/cryptoproject/arbitrage/contracts/RaoArbitrage.sol",
    "compiler": {
        "name": "solc",
        "version": "0.8.0+commit.c7dfd78e.Emscripten.clang"
    },
    "schemaVersion": "3.4.1",
    "updatedAt": "2021-12-14T21:21:15.691Z",
    "devdoc": {
        "kind": "dev",
        "methods": {},
        "version": 1
    },
    "userdoc": {
        "kind": "user",
        "methods": {},
        "version": 1
    }
}