{
    "contractName": "RaoArbitrage",
    "abi": [
        {
            "inputs": [],
            "stateMutability": "nonpayable",
            "type": "constructor"
        },
        {
            "inputs": [],
            "name": "owner",
            "outputs": [
                {
                    "internalType": "address",
                    "name": "",
                    "type": "address"
                }
            ],
            "stateMutability": "view",
            "type": "function",
            "constant": true
        },
        {
            "inputs": [
                {
                    "internalType": "contract IERC20",
                    "name": "token0",
                    "type": "address"
                },
                {
                    "internalType": "contract IERC20",
                    "name": "token1",
                    "type": "address"
                },
                {
                    "internalType": "contract IUniswapV2Router01",
                    "name": "routerExpensive",
                    "type": "address"
                },
                {
                    "internalType": "contract IUniswapV2Router01",
                    "name": "routerCheap",
                    "type": "address"
                },
                {
                    "internalType": "uint256",
                    "name": "amount0In",
                    "type": "uint256"
                },
                {
                    "internalType": "uint256",
                    "name": "deadline",
                    "type": "uint256"
                }
            ],
            "name": "swap",
            "outputs": [
                {
                    "internalType": "uint256",
                    "name": "amount0Expensive",
                    "type": "uint256"
                }
            ],
            "stateMutability": "view",
            "type": "function",
            "constant": true
        }
    ],
    "bytecode": "0x60a060405234801561001057600080fd5b503373ffffffffffffffffffffffffffffffffffffffff1660808173ffffffffffffffffffffffffffffffffffffffff1660601b8152505060805160601c6109be6100656000396000608b01526109be6000f3fe608060405234801561001057600080fd5b50600436106100365760003560e01c80638da5cb5b1461003b578063a64e3dd714610059575b600080fd5b610043610089565b6040516100509190610787565b60405180910390f35b610073600480360381019061006e919061061b565b6100ad565b60405161008091906107c2565b60405180910390f35b7f000000000000000000000000000000000000000000000000000000000000000081565b600081428110156100f3576040517f08c379a00000000000000000000000000000000000000000000000000000000081526004016100ea906107a2565b60405180910390fd5b6000600267ffffffffffffffff811115610136577f4e487b7100000000000000000000000000000000000000000000000000000000600052604160045260246000fd5b6040519080825280602002602001820160405280156101645781602001602082028036833780820191505090505b509050600089826000815181106101a4577f4e487b7100000000000000000000000000000000000000000000000000000000600052603260045260246000fd5b602002602001019073ffffffffffffffffffffffffffffffffffffffff16908173ffffffffffffffffffffffffffffffffffffffff16815250508882600181518110610219577f4e487b7100000000000000000000000000000000000000000000000000000000600052603260045260246000fd5b602002602001019073ffffffffffffffffffffffffffffffffffffffff16908173ffffffffffffffffffffffffffffffffffffffff16815250508673ffffffffffffffffffffffffffffffffffffffff1663d06ca61f87846040518363ffffffff1660e01b815260040161028e9291906107dd565b60006040518083038186803b1580156102a657600080fd5b505afa1580156102ba573d6000803e3d6000fd5b505050506040513d6000823e3d601f19601f820116820180604052508101906102e391906105da565b60018151811061031c577f4e487b7100000000000000000000000000000000000000000000000000000000600052603260045260246000fd5b602002602001015190508882600081518110610361577f4e487b7100000000000000000000000000000000000000000000000000000000600052603260045260246000fd5b602002602001019073ffffffffffffffffffffffffffffffffffffffff16908173ffffffffffffffffffffffffffffffffffffffff168152505089826001815181106103d6577f4e487b7100000000000000000000000000000000000000000000000000000000600052603260045260246000fd5b602002602001019073ffffffffffffffffffffffffffffffffffffffff16908173ffffffffffffffffffffffffffffffffffffffff16815250508773ffffffffffffffffffffffffffffffffffffffff1663d06ca61f82846040518363ffffffff1660e01b815260040161044b9291906107dd565b60006040518083038186803b15801561046357600080fd5b505afa158015610477573d6000803e3d6000fd5b505050506040513d6000823e3d601f19601f820116820180604052508101906104a091906105da565b6001815181106104d9577f4e487b7100000000000000000000000000000000000000000000000000000000600052603260045260246000fd5b602002602001015193505050509695505050505050565b60006105036104fe8461083e565b61080d565b9050808382526020820190508285602086028201111561052257600080fd5b60005b85811015610552578161053888826105c5565b845260208401935060208301925050600181019050610525565b5050509392505050565b600082601f83011261056d57600080fd5b815161057d8482602086016104f0565b91505092915050565b60008135905061059581610943565b92915050565b6000813590506105aa8161095a565b92915050565b6000813590506105bf81610971565b92915050565b6000815190506105d481610971565b92915050565b6000602082840312156105ec57600080fd5b600082015167ffffffffffffffff81111561060657600080fd5b6106128482850161055c565b91505092915050565b60008060008060008060c0878903121561063457600080fd5b600061064289828a01610586565b965050602061065389828a01610586565b955050604061066489828a0161059b565b945050606061067589828a0161059b565b935050608061068689828a016105b0565b92505060a061069789828a016105b0565b9150509295509295509295565b60006106b083836106bc565b60208301905092915050565b6106c5816108b4565b82525050565b6106d4816108b4565b82525050565b60006106e58261087a565b6106ef8185610892565b93506106fa8361086a565b8060005b8381101561072b57815161071288826106a4565b975061071d83610885565b9250506001810190506106fe565b5085935050505092915050565b6000610745600f836108a3565b91507f52616f4172626974726167653a205400000000000000000000000000000000006000830152602082019050919050565b6107818161090a565b82525050565b600060208201905061079c60008301846106cb565b92915050565b600060208201905081810360008301526107bb81610738565b9050919050565b60006020820190506107d76000830184610778565b92915050565b60006040820190506107f26000830185610778565b818103602083015261080481846106da565b90509392505050565b6000604051905081810181811067ffffffffffffffff8211171561083457610833610914565b5b8060405250919050565b600067ffffffffffffffff82111561085957610858610914565b5b602082029050602081019050919050565b6000819050602082019050919050565b600081519050919050565b6000602082019050919050565b600082825260208201905092915050565b600082825260208201905092915050565b60006108bf826108ea565b9050919050565b60006108d1826108b4565b9050919050565b60006108e3826108b4565b9050919050565b600073ffffffffffffffffffffffffffffffffffffffff82169050919050565b6000819050919050565b7f4e487b7100000000000000000000000000000000000000000000000000000000600052604160045260246000fd5b61094c816108c6565b811461095757600080fd5b50565b610963816108d8565b811461096e57600080fd5b50565b61097a8161090a565b811461098557600080fd5b5056fea2646970667358221220305f347a881aecad2b83c7f30e74bcf78abb59575272ad6e30bd29ee28e05e4264736f6c63430008000033",
    "immutableReferences": {
        "86": [
            {
                "length": 32,
                "start": 139
            }
        ]
    },
    "source": "// SPDX-License-Identifier: MIT\npragma solidity <0.9.0;\n\nimport \"@uniswap/v2-core/contracts/interfaces/IUniswapV2Factory.sol\";\nimport \"@uniswap/v2-core/contracts/interfaces/IUniswapV2Pair.sol\";\n\ninterface IERC20 {\n    function balanceOf(address owner) external view returns (uint256);\n\n    function approve(address spender, uint256 value) external returns (bool);\n\n    function transfer(address to, uint256 value) external returns (bool);\n\n    function transferFrom(\n        address from,\n        address to,\n        uint256 value\n    ) external returns (bool);\n}\n\ninterface IUniswapV2Router01 {\n    function swapExactTokensForTokens(\n        uint256 amountIn,\n        uint256 amountOutMin,\n        address[] calldata path,\n        address to,\n        uint256 deadline\n    ) external returns (uint256[] memory amounts);\n\n    function swapExactETHForTokens(\n        uint256 amountOutMin,\n        address[] calldata path,\n        address to,\n        uint256 deadline\n    ) external payable returns (uint256[] memory amounts);\n\n    function getAmountsOut(uint256 amountIn, address[] calldata path)\n        external\n        view\n        returns (uint256[] memory amounts);\n}\n\ncontract RaoArbitrage {\n    address public immutable owner;\n\n    modifier ensure(uint256 time) {\n        require(time >= block.timestamp, \"RaoArbitrage: T\");\n        _;\n    }\n\n    modifier restricted() {\n        require(msg.sender == owner, \"RaoArbitrage: O\");\n        _;\n    }\n\n    constructor() {\n        owner = msg.sender;\n    }\n\n    function swap(\n        IERC20 token0,\n        IERC20 token1,\n        IUniswapV2Router01 routerExpensive,\n        IUniswapV2Router01 routerCheap,\n        uint256 amount0In,\n        uint256 deadline\n    )\n        external\n        view\n        ensure(deadline)\n        returns (uint256 amount0Expensive)\n    {\n        address[] memory path = new address[](2);\n        uint256 amount1Cheap;\n        {\n            path[0] = address(token0);\n            path[1] = address(token1);\n            amount1Cheap = routerCheap.getAmountsOut(amount0In, path)[1];\n            path[0] = address(token1); // switch tokens\n            path[1] = address(token0);\n            amount0Expensive = routerExpensive.getAmountsOut(\n                amount1Cheap,\n                path\n            )[1];\n            // require(amount0In > amount0Expensive, \"RaoArbitrage: L\");\n        }\n    }\n}\n",
    "sourcePath": "/home/lenoir/vscode/cryptoproject/arbitrage/contracts/RaoArbitrage.sol",
    "compiler": {
        "name": "solc",
        "version": "0.8.0+commit.c7dfd78e.Emscripten.clang"
    },
    "schemaVersion": "3.4.1",
    "updatedAt": "2021-12-13T23:56:42.971Z",
    "networkType": "ethereum",
    "devdoc": {
        "kind": "dev",
        "methods": {},
        "version": 1
    },
    "userdoc": {
        "kind": "user",
        "methods": {},
        "version": 1
    }
}