{
    "contractName": "RaoArbitrage",
    "abi": [
        {
            "anonymous": false,
            "inputs": [
                {
                    "indexed": true,
                    "internalType": "address",
                    "name": "previousOwner",
                    "type": "address"
                },
                {
                    "indexed": true,
                    "internalType": "address",
                    "name": "newOwner",
                    "type": "address"
                }
            ],
            "name": "OwnershipTransferred",
            "type": "event"
        },
        {
            "inputs": [],
            "name": "owner",
            "outputs": [
                {
                    "internalType": "address",
                    "name": "",
                    "type": "address"
                }
            ],
            "stateMutability": "view",
            "type": "function"
        },
        {
            "inputs": [],
            "name": "renounceOwnership",
            "outputs": [],
            "stateMutability": "nonpayable",
            "type": "function"
        },
        {
            "inputs": [
                {
                    "internalType": "address",
                    "name": "newOwner",
                    "type": "address"
                }
            ],
            "name": "transferOwnership",
            "outputs": [],
            "stateMutability": "nonpayable",
            "type": "function"
        },
        {
            "inputs": [
                {
                    "internalType": "contract IERC20",
                    "name": "token",
                    "type": "address"
                }
            ],
            "name": "withdraw",
            "outputs": [],
            "stateMutability": "nonpayable",
            "type": "function"
        },
        {
            "inputs": [
                {
                    "components": [
                        {
                            "internalType": "uint256",
                            "name": "amountBorrow",
                            "type": "uint256"
                        },
                        {
                            "internalType": "address",
                            "name": "pairBorrow",
                            "type": "address"
                        },
                        {
                            "internalType": "address",
                            "name": "routerSell",
                            "type": "address"
                        }
                    ],
                    "internalType": "struct RaoArbitrage.FlashData",
                    "name": "flashd",
                    "type": "tuple"
                },
                {
                    "internalType": "uint256",
                    "name": "deadline",
                    "type": "uint256"
                }
            ],
            "name": "flashswap",
            "outputs": [],
            "stateMutability": "nonpayable",
            "type": "function"
        },
        {
            "inputs": [
                {
                    "internalType": "address",
                    "name": "sender",
                    "type": "address"
                },
                {
                    "internalType": "uint256",
                    "name": "amountIn",
                    "type": "uint256"
                },
                {
                    "internalType": "uint256",
                    "name": "",
                    "type": "uint256"
                },
                {
                    "internalType": "bytes",
                    "name": "data",
                    "type": "bytes"
                }
            ],
            "name": "uniswapV2Call",
            "outputs": [],
            "stateMutability": "nonpayable",
            "type": "function"
        }
    ],
    "bytecode": "0x608060405234801561001057600080fd5b5061002d61002261003260201b60201c565b61003a60201b60201c565b6100fe565b600033905090565b60008060009054906101000a900473ffffffffffffffffffffffffffffffffffffffff169050816000806101000a81548173ffffffffffffffffffffffffffffffffffffffff021916908373ffffffffffffffffffffffffffffffffffffffff1602179055508173ffffffffffffffffffffffffffffffffffffffff168173ffffffffffffffffffffffffffffffffffffffff167f8be0079c531659141344cd1fd0a4f28419497f9722a3daafe3b4186f6b6457e060405160405180910390a35050565b6117f68061010d6000396000f3fe608060405234801561001057600080fd5b50600436106100625760003560e01c806310d1e85c1461006757806351cff8d914610083578063715018a61461009f578063830dfe4c146100a95780638da5cb5b146100c5578063f2fde38b146100e3575b600080fd5b610081600480360381019061007c9190610f07565b6100ff565b005b61009d60048036038101906100989190610ff1565b610605565b005b6100a7610725565b005b6100c360048036038101906100be919061101a565b6107ad565b005b6100cd610899565b6040516100da91906112d0565b60405180910390f35b6100fd60048036038101906100f89190610e8c565b6108c2565b005b3073ffffffffffffffffffffffffffffffffffffffff168573ffffffffffffffffffffffffffffffffffffffff161461016d576040517f08c379a000000000000000000000000000000000000000000000000000000000815260040161016490611354565b60405180910390fd5b6000828281019061017e9190610ede565b905060003373ffffffffffffffffffffffffffffffffffffffff16630dfe16816040518163ffffffff1660e01b815260040160206040518083038186803b1580156101c857600080fd5b505afa1580156101dc573d6000803e3d6000fd5b505050506040513d601f19601f820116820180604052508101906102009190610eb5565b905060003373ffffffffffffffffffffffffffffffffffffffff1663d21220a76040518163ffffffff1660e01b815260040160206040518083038186803b15801561024a57600080fd5b505afa15801561025e573d6000803e3d6000fd5b505050506040513d601f19601f820116820180604052508101906102829190610eb5565b9050600080610293898585336109ba565b915091508181116102d9576040517f08c379a00000000000000000000000000000000000000000000000000000000081526004016102d090611314565b60405180910390fd5b6000600267ffffffffffffffff81111561031c577f4e487b7100000000000000000000000000000000000000000000000000000000600052604160045260246000fd5b60405190808252806020026020018201604052801561034a5781602001602082028036833780820191505090505b5090508481600081518110610388577f4e487b7100000000000000000000000000000000000000000000000000000000600052603260045260246000fd5b602002602001019073ffffffffffffffffffffffffffffffffffffffff16908173ffffffffffffffffffffffffffffffffffffffff168152505083816001815181106103fd577f4e487b7100000000000000000000000000000000000000000000000000000000600052603260045260246000fd5b602002602001019073ffffffffffffffffffffffffffffffffffffffff16908173ffffffffffffffffffffffffffffffffffffffff16815250508473ffffffffffffffffffffffffffffffffffffffff1663095ea7b3878c6040518363ffffffff1660e01b81526004016104729291906112eb565b602060405180830381600087803b15801561048c57600080fd5b505af11580156104a0573d6000803e3d6000fd5b505050506040513d601f19601f820116820180604052508101906104c49190610fc8565b508573ffffffffffffffffffffffffffffffffffffffff166338ed17398b858430601e426104f2919061151d565b6040518663ffffffff1660e01b8152600401610512959493929190611400565b600060405180830381600087803b15801561052c57600080fd5b505af1158015610540573d6000803e3d6000fd5b505050506040513d6000823e3d601f19601f820116820180604052508101906105699190610f87565b508373ffffffffffffffffffffffffffffffffffffffff1663a9059cbb33846040518363ffffffff1660e01b81526004016105a59291906112eb565b602060405180830381600087803b1580156105bf57600080fd5b505af11580156105d3573d6000803e3d6000fd5b505050506040513d601f19601f820116820180604052508101906105f79190610fc8565b505050505050505050505050565b8073ffffffffffffffffffffffffffffffffffffffff1663a9059cbb610629610899565b8373ffffffffffffffffffffffffffffffffffffffff166370a08231306040518263ffffffff1660e01b815260040161066291906112d0565b60206040518083038186803b15801561067a57600080fd5b505afa15801561068e573d6000803e3d6000fd5b505050506040513d601f19601f820116820180604052508101906106b29190611056565b6040518363ffffffff1660e01b81526004016106cf9291906112eb565b602060405180830381600087803b1580156106e957600080fd5b505af11580156106fd573d6000803e3d6000fd5b505050506040513d601f19601f820116820180604052508101906107219190610fc8565b5050565b61072d610bab565b73ffffffffffffffffffffffffffffffffffffffff1661074b610899565b73ffffffffffffffffffffffffffffffffffffffff16146107a1576040517f08c379a000000000000000000000000000000000000000000000000000000000815260040161079890611374565b60405180910390fd5b6107ab6000610bb3565b565b80428110156107f1576040517f08c379a00000000000000000000000000000000000000000000000000000000081526004016107e890611394565b60405180910390fd5b6000836040015160405160200161080891906112d0565b6040516020818303038152906040529050836020015173ffffffffffffffffffffffffffffffffffffffff1663022c0d9f8560000151600030856040518563ffffffff1660e01b815260040161086194939291906113b4565b600060405180830381600087803b15801561087b57600080fd5b505af115801561088f573d6000803e3d6000fd5b5050505050505050565b60008060009054906101000a900473ffffffffffffffffffffffffffffffffffffffff16905090565b6108ca610bab565b73ffffffffffffffffffffffffffffffffffffffff166108e8610899565b73ffffffffffffffffffffffffffffffffffffffff161461093e576040517f08c379a000000000000000000000000000000000000000000000000000000000815260040161093590611374565b60405180910390fd5b600073ffffffffffffffffffffffffffffffffffffffff168173ffffffffffffffffffffffffffffffffffffffff1614156109ae576040517f08c379a00000000000000000000000000000000000000000000000000000000081526004016109a590611334565b60405180910390fd5b6109b781610bb3565b50565b60008060008573ffffffffffffffffffffffffffffffffffffffff166370a08231856040518263ffffffff1660e01b81526004016109f891906112d0565b60206040518083038186803b158015610a1057600080fd5b505afa158015610a24573d6000803e3d6000fd5b505050506040513d601f19601f82011682018060405250810190610a489190611056565b905060008573ffffffffffffffffffffffffffffffffffffffff166370a08231866040518263ffffffff1660e01b8152600401610a8591906112d0565b60206040518083038186803b158015610a9d57600080fd5b505afa158015610ab1573d6000803e3d6000fd5b505050506040513d601f19601f82011682018060405250810190610ad59190611056565b90506000610aee6103e58a610c7790919063ffffffff16565b9050610b3b610b1a82610b0c6103e887610c7790919063ffffffff16565b610c8d90919063ffffffff16565b610b2d8484610c7790919063ffffffff16565b610ca390919063ffffffff16565b9450610b9d6001610b8f610b5a6103e587610c7790919063ffffffff16565b610b818d610b736103e889610c7790919063ffffffff16565b610c7790919063ffffffff16565b610ca390919063ffffffff16565b610c8d90919063ffffffff16565b935050505094509492505050565b600033905090565b60008060009054906101000a900473ffffffffffffffffffffffffffffffffffffffff169050816000806101000a81548173ffffffffffffffffffffffffffffffffffffffff021916908373ffffffffffffffffffffffffffffffffffffffff1602179055508173ffffffffffffffffffffffffffffffffffffffff168173ffffffffffffffffffffffffffffffffffffffff167f8be0079c531659141344cd1fd0a4f28419497f9722a3daafe3b4186f6b6457e060405160405180910390a35050565b60008183610c8591906115a4565b905092915050565b60008183610c9b919061151d565b905092915050565b60008183610cb19190611573565b905092915050565b6000610ccc610cc78461148b565b61145a565b90508083825260208201905082856020860282011115610ceb57600080fd5b60005b85811015610d1b5781610d018882610e77565b845260208401935060208301925050600181019050610cee565b5050509392505050565b600081359050610d348161174d565b92915050565b600081519050610d498161174d565b92915050565b600081359050610d5e81611764565b92915050565b600082601f830112610d7557600080fd5b8151610d85848260208601610cb9565b91505092915050565b600081519050610d9d8161177b565b92915050565b60008083601f840112610db557600080fd5b8235905067ffffffffffffffff811115610dce57600080fd5b602083019150836001820283011115610de657600080fd5b9250929050565b600081359050610dfc81611792565b92915050565b600060608284031215610e1457600080fd5b610e1e606061145a565b90506000610e2e84828501610e62565b6000830152506020610e4284828501610d25565b6020830152506040610e5684828501610d25565b60408301525092915050565b600081359050610e71816117a9565b92915050565b600081519050610e86816117a9565b92915050565b600060208284031215610e9e57600080fd5b6000610eac84828501610d25565b91505092915050565b600060208284031215610ec757600080fd5b6000610ed584828501610d3a565b91505092915050565b600060208284031215610ef057600080fd5b6000610efe84828501610d4f565b91505092915050565b600080600080600060808688031215610f1f57600080fd5b6000610f2d88828901610d25565b9550506020610f3e88828901610e62565b9450506040610f4f88828901610e62565b935050606086013567ffffffffffffffff811115610f6c57600080fd5b610f7888828901610da3565b92509250509295509295909350565b600060208284031215610f9957600080fd5b600082015167ffffffffffffffff811115610fb357600080fd5b610fbf84828501610d64565b91505092915050565b600060208284031215610fda57600080fd5b6000610fe884828501610d8e565b91505092915050565b60006020828403121561100357600080fd5b600061101184828501610ded565b91505092915050565b6000806080838503121561102d57600080fd5b600061103b85828601610e02565b925050606061104c85828601610e62565b9150509250929050565b60006020828403121561106857600080fd5b600061107684828501610e77565b91505092915050565b600061108b8383611097565b60208301905092915050565b6110a0816115fe565b82525050565b6110af816115fe565b82525050565b60006110c0826114c7565b6110ca81856114ea565b93506110d5836114b7565b8060005b838110156111065781516110ed888261107f565b97506110f8836114dd565b9250506001810190506110d9565b5085935050505092915050565b600061111e826114d2565b61112881856114fb565b935061113881856020860161167c565b6111418161173c565b840191505092915050565b6111558161166a565b82525050565b6000611168600f8361150c565b91507f52616f4172626974726167653a204b00000000000000000000000000000000006000830152602082019050919050565b60006111a860268361150c565b91507f4f776e61626c653a206e6577206f776e657220697320746865207a65726f206160008301527f64647265737300000000000000000000000000000000000000000000000000006020830152604082019050919050565b600061120e60118361150c565b91507f52616f4172626974726167653a204e414e0000000000000000000000000000006000830152602082019050919050565b600061124e60208361150c565b91507f4f776e61626c653a2063616c6c6572206973206e6f7420746865206f776e65726000830152602082019050919050565b600061128e600f8361150c565b91507f52616f4172626974726167653a205400000000000000000000000000000000006000830152602082019050919050565b6112ca81611660565b82525050565b60006020820190506112e560008301846110a6565b92915050565b600060408201905061130060008301856110a6565b61130d60208301846112c1565b9392505050565b6000602082019050818103600083015261132d8161115b565b9050919050565b6000602082019050818103600083015261134d8161119b565b9050919050565b6000602082019050818103600083015261136d81611201565b9050919050565b6000602082019050818103600083015261138d81611241565b9050919050565b600060208201905081810360008301526113ad81611281565b9050919050565b60006080820190506113c960008301876112c1565b6113d6602083018661114c565b6113e360408301856110a6565b81810360608301526113f58184611113565b905095945050505050565b600060a08201905061141560008301886112c1565b61142260208301876112c1565b818103604083015261143481866110b5565b905061144360608301856110a6565b61145060808301846112c1565b9695505050505050565b6000604051905081810181811067ffffffffffffffff821117156114815761148061170d565b5b8060405250919050565b600067ffffffffffffffff8211156114a6576114a561170d565b5b602082029050602081019050919050565b6000819050602082019050919050565b600081519050919050565b600081519050919050565b6000602082019050919050565b600082825260208201905092915050565b600082825260208201905092915050565b600082825260208201905092915050565b600061152882611660565b915061153383611660565b9250827fffffffffffffffffffffffffffffffffffffffffffffffffffffffffffffffff03821115611568576115676116af565b5b828201905092915050565b600061157e82611660565b915061158983611660565b925082611599576115986116de565b5b828204905092915050565b60006115af82611660565b91506115ba83611660565b9250817fffffffffffffffffffffffffffffffffffffffffffffffffffffffffffffffff04831182151516156115f3576115f26116af565b5b828202905092915050565b600061160982611640565b9050919050565b600061161b82611640565b9050919050565b60008115159050919050565b6000611639826115fe565b9050919050565b600073ffffffffffffffffffffffffffffffffffffffff82169050919050565b6000819050919050565b600061167582611660565b9050919050565b60005b8381101561169a57808201518184015260208101905061167f565b838111156116a9576000848401525b50505050565b7f4e487b7100000000000000000000000000000000000000000000000000000000600052601160045260246000fd5b7f4e487b7100000000000000000000000000000000000000000000000000000000600052601260045260246000fd5b7f4e487b7100000000000000000000000000000000000000000000000000000000600052604160045260246000fd5b6000601f19601f8301169050919050565b611756816115fe565b811461176157600080fd5b50565b61176d81611610565b811461177857600080fd5b50565b61178481611622565b811461178f57600080fd5b50565b61179b8161162e565b81146117a657600080fd5b50565b6117b281611660565b81146117bd57600080fd5b5056fea26469706673582212200a7a16c5848c86abb80351f626499893de97ddb7480cd9d91ddd1308ba76e57164736f6c63430008000033",
    "immutableReferences": {},
    "source": "// SPDX-License-Identifier: MIT\npragma solidity <0.9.0;\n\nimport \"@uniswap/v2-core/contracts/interfaces/IUniswapV2Callee.sol\";\nimport \"@uniswap/v2-core/contracts/interfaces/IUniswapV2Factory.sol\";\nimport \"@uniswap/v2-core/contracts/interfaces/IUniswapV2Pair.sol\";\nimport \"@uniswap/v2-periphery/contracts/interfaces/IUniswapV2Router01.sol\";\nimport \"openzeppelin-solidity/contracts/token/ERC20/IERC20.sol\";\nimport \"openzeppelin-solidity/contracts/utils/math/SafeMath.sol\";\nimport \"openzeppelin-solidity/contracts/access/Ownable.sol\";\n\ncontract RaoArbitrage is IUniswapV2Callee, Ownable {\n    using SafeMath for uint256;\n\n    modifier ensure(uint256 time) {\n        require(time >= block.timestamp, \"RaoArbitrage: T\");\n        _;\n    }\n\n    struct FlashData {\n        uint256 amountBorrow;\n        address pairBorrow;\n        address routerSell;\n    }\n\n    function withdraw(IERC20 token) external {\n        token.transfer(owner(), token.balanceOf(address(this)));\n    }\n\n    function flashswap(FlashData memory flashd, uint256 deadline)\n        external\n        ensure(deadline)\n    {\n        bytes memory data = abi.encode(flashd.routerSell);\n        IUniswapV2Pair(flashd.pairBorrow).swap(\n            flashd.amountBorrow,\n            0,\n            address(this),\n            data\n        );\n    }\n\n    function uniswapV2Call(\n        address sender,\n        uint256 amountIn,\n        uint256,\n        bytes calldata data\n    ) external override {\n        require(sender == address(this), \"RaoArbitrage: NAN\");\n        address routerSell = abi.decode(data, (address));\n        address token0 = IUniswapV2Pair(msg.sender).token0();\n        address token1 = IUniswapV2Pair(msg.sender).token1();\n        (uint256 amountOutMin, uint256 amountToRepay) = getAmountsOut(\n            amountIn,\n            token0,\n            token1,\n            msg.sender\n        );\n        require(amountToRepay > amountOutMin, \"RaoArbitrage: K\");\n        address[] memory path = new address[](2);\n        path[0] = token0;\n        path[1] = token1;\n        IERC20(token0).approve(routerSell, amountIn);\n        IUniswapV2Router01(routerSell).swapExactTokensForTokens(\n            amountIn,\n            amountOutMin,\n            path,\n            address(this),\n            block.timestamp + 30\n        );\n        IERC20(token1).transfer(msg.sender, amountToRepay);\n    }\n\n    function getAmountsOut(\n        uint256 amountIn,\n        address token0,\n        address token1,\n        address to\n    ) internal view returns (uint256 amountOutMin, uint256 amountToRepay) {\n        uint256 reserveIn = IERC20(token0).balanceOf(to);\n        uint256 reserveOut = IERC20(token1).balanceOf(to);\n        uint256 amountInWithFee = amountIn.mul(997);\n        amountOutMin = amountInWithFee.mul(reserveOut).div(reserveIn.mul(1000).add(amountInWithFee));\n        amountToRepay = reserveOut\n            .mul(1000)\n            .mul(amountIn)\n            .div(reserveIn.mul(997))\n            .add(1);\n    }\n}\n",
    "sourcePath": "/home/lenoir/vscode/cryptoproject/arbitrage/contracts/RaoArbitrage.sol",
    "compiler": {
        "name": "solc",
        "version": "0.8.0+commit.c7dfd78e.Emscripten.clang"
    },
    "schemaVersion": "3.4.1",
    "updatedAt": "2021-12-17T03:21:18.669Z",
    "devdoc": {
        "kind": "dev",
        "methods": {
            "owner()": {
                "details": "Returns the address of the current owner."
            },
            "renounceOwnership()": {
                "details": "Leaves the contract without owner. It will not be possible to call `onlyOwner` functions anymore. Can only be called by the current owner. NOTE: Renouncing ownership will leave the contract without an owner, thereby removing any functionality that is only available to the owner."
            },
            "transferOwnership(address)": {
                "details": "Transfers ownership of the contract to a new account (`newOwner`). Can only be called by the current owner."
            }
        },
        "version": 1
    },
    "userdoc": {
        "kind": "user",
        "methods": {},
        "version": 1
    }
}